:20000000FFFFFFFFFFFFFFFFFFFFFFFFFFFFFFFFFFFFFFFFFFFFFFFFFFFFFFFFFFFFFFFF00
:200020000AC009C008C007C006C011241FBECFEDCDBF02D002C0E4CFFFCFF894FFCFFFFF11
:20004000FFFFFFFFFFFFFFFFFFFFFFFFFFFFFFFFFFFFFFFFFFFFFFFFFFFFFFFFFFFFFFFFC0
:20006000FFFFFFFFFFFFFFFFFFFFFFFFFFFFFFFFFFFFFFFFFFFFFFFFFFFFFFFFFFFFFFFFA0
:20008000230026002900040404040404040402020202020203030303030301020408102071
:2000A0004080010204081020010204081020000000070002010000030406000000000000EB
:2000C0000000CD0911241FBECFEFD8E0DEBFCDBF11E0A0E0B1E0EAE5F5E102C005900D92FC
:2000E000AA31B107D9F712E0AAE1B1E001C01D92A53EB107E1F710E0C4ECD0E004C02297DF
:20010000FE010E94A70AC23CD107C9F70E94230A0C94AB0A0C9400008091200180932002CC
:2001200080912101809321028091220180932202809123018093230280912401809324020F
:200140008091250180932502809126018093260280912701809327028091280180932802CF
:200160001092290290912A0180E020912B01820F911D90932B0280932A0290912C0180E0AD
:2001800020912D01820F911D90932D0280932C0290912E0180E020912F01820F911D9093BB
:2001A0002F0280932E029091320180E020913301820F911D9093310280933002089590E04B
:2001C000049633E0880F991F3A95E1F78EBD0DB407FEFDCF8EB57EBD0DB407FEFDCF8EB54C
:2001E0006EBD0DB407FEFDCF8EB51EBC0DB407FEFDCF8EB50895CF92DF92EF92FF920F932D
:200200001F93CF93DF937C01C0911E01D0911F01CC0FDD1F00E010E040EAC42EDD24DA94B8
:200220001BC0CEBC0DB407FEFDCF8EB5DEBD0DB407FEFDCF8EB5CEBD0DB407FEFDCF8EB5B4
:20024000DEBC0DB407FEFDCF6EB583EC92E00E945C0A0F5F1F4F21960E151F0514F380E124
:20026000DF91CF911F910F91FF90EF90DF90CF9008950F931F93CF93DF938C01C0E0D0E0E0
:2002800022C060911E0170911F0180E00E94DF00682F83EC92E00E945C0A60911E017091D9
:2002A0001F0181E00E94DF00682F83EC92E00E945C0A80911E0190911F01019690931F0171
:2002C00080931E012296C017D107DCF280E1DF91CF911F910F9108958CE060E00E947F07C5
:2002E0008BE060E00E947F078DE060E00E947F078AE060E00E947F0710921D0110921C0105
:20030000089583E58CBD8DB58EB58AE061E00E947F078AE061E00E94BE078DE061E00E94D5
:200320007F078DE060E00E94BE0762E370E080E090E00E948B068AE060E00E94BE0762E335
:2003400070E080E090E00E948B068CE060E00E947F078BE061E00E947F078CEA8EBD0DB420
:2003600007FEFDCF8EB583E58EBD0DB407FEFDCF8EB51EBC0DB407FEFDCF8EB51EBC0DB497
:2003800007FEFDCF8EB581E090E090931D0180931C010895682F87E00E94BE0708950F93C6
:2003A0001F938C0180E090E00E94CA018CE48EBD0DB407FEFDCF8EB51EBD0DB407FEFDCFC4
:2003C0008EB50EBD0DB407FEFDCF8EB51EBC0DB407FEFDCF8EB56EE170E080E090E00E947A
:2003E0008B0681E090E00E94CA011F910F910895CF92DF92EF92FF920F931F93CF93DF9335
:200400007C0180912C0290912D028032910531F480911E0190911F01807F11C080349105D8
:2004200031F480911E0190911F01807E08C08038910571F480911E0190911F01807CC0E29E
:20044000D1E000E010E070E4C72E68E4D62E9BC020911E0130911F018050914019F4C901FE
:200460008078EDCFC901EBCF40912C0250912D024032510531F420911E0130911F01207FF8
:200480001AC04034510531F420911E0130911F01207E11C04038510531F420911E013091EF
:2004A0001F01207C08C020911E0130911F014050514009F420788217930761F10E94CF015A
:2004C00080912C0290912D028032910531F480911E0190911F01807F1DC08034910531F464
:2004E00080911E0190911F01807E14C08038910531F480911E0190911F01807C0BC020915D
:200500001E0130911F018050914019F4C901807801C0C90120911E0130911F014881532FE4
:20052000622FCEBC0DB407FEFDCF7EB55EBD0DB407FEFDCF7EB56EBD0DB407FEFDCF7EB50B
:200540004EBD0DB407FEFDCF4EB54981DEBC0DB407FEFDCF7EB55EBD0DB407FEFDCF5EB512
:200560006EBD0DB407FEFDCF5EB54EBD0DB407FEFDCF0E5F1F4F4EB52F5F3F4F30931F0131
:2005800020931E0122960E151F050CF46DCF0E94CF0180E1DF91CF911F910F91FF90EF904D
:2005A000DF90CF9008951F93CF93DF93182FEB01812F61E00E94BE076EE170E080E090E050
:2005C0000E948B06812F60E00E94BE076EE170E080E090E00E948B0621978FEFCF3FD807CC
:2005E00039F7DF91CF911F91089583EC92E00E942309892BD1F383EC92E00E94540908950A
:200600000E94F502803269F080911A0190911B01019690931B0180931A0183EC92E065E1A2
:2006200055C083EC92E064E10E945C0A80E38EBD0DB407FEFDCF8EB51EBC0DB407FEFDCF88
:200640008EB51EBC0DB407FEFDCF8EB51EBC0DB407FEFDCF6EB583EC92E00E945C0A80E3CD
:200660008EBD0DB407FEFDCF8EB51EBC0DB407FEFDCF8EB581E08EBD0DB407FEFDCF8EB52A
:200680001EBC0DB407FEFDCF6EB583EC92E00E945C0A80E38EBD0DB407FEFDCF8EB51EBC85
:2006A0000DB407FEFDCF8EB582E08EBD0DB407FEFDCF8EB51EBC0DB407FEFDCF6EB583ECE5
:2006C00092E00E945C0A83EC92E060E10E945C0A0895FF920F931F93CF93DF930E94F50287
:2006E000F82E0E94F502082F0E94F502182F0E94F502803269F080911A0190911B01019680
:2007000090931B0180931A0183EC92E065E11AC09F2D80E0EC01C00FD11D83EC92E064E16F
:200720000E945C0A163421F4CE010E94390107C0153411F061E104C0CE010E94FB00682F8D
:2007400083EC92E00E945C0ADF91CF911F910F91FF9008951F93182F0E94F502803271F4BB
:2007600083EC92E064E10E945C0A83EC92E0612F0E945C0A83EC92E060E10CC080911A01B8
:2007800090911B01019690931B0180931A0183EC92E065E10E945C0A1F910895813861F092
:2007A000823818F4803871F405C0823839F0833949F406C082E007C081E005C082E103C07A
:2007C00083E501C080E00E94AA0308950E94F502803249F483EC92E064E10E945C0A83EC7F
:2007E00092E060E10CC080911A0190911B01019690931B0180931A0183EC92E065E10E9444
:00000001FF
