:1000000012C017C016C015C014C013C012C011C052
:1000100010C00FC00EC00DC00CC00BC00AC009C07C
:1000200008C007C006C011241FBECFEDCDBF12D03F
:1000300049C0E6CF12B883E389B988E18AB98EE076
:1000400083B908955F9BFECF8CB108955D9BFECF71
:100050008CB908958FEF81BB80E482BBEBDF8DE329
:10006000F5DF2FEF84E39CE0215080409040E1F7E2
:1000700000C0000012BAC0E2E5DF8A36E9F7E2DF2D
:100080008F36D1F7DFDF8037B9F7DCDF8136A1F7B4
:10009000D9DF893689F7D6DF883771F7D3DF853620
:1000A00059F7D0DF803741F7CDDF8A3029F782B3A7
:1000B0008C2782BB82B3811102C08BE201C08DE22A
:0800C000C5DFDACFF894FFCF91
:00000001FF
